:020000001229C3
:10000600103083120313FD00FD0B072800000800C3
:0400160000000800DE
:10001A00083083120313FC002330FD00FD0B132864
:06002A00FC0B1328080086
:1000300083120313D31B1E2886111F288615531BFA
:100040002328061124280615D31A282886102928C3
:100050008614531A2D2806102E2806144C18322800
:1000600006163328061286160B208612D3193A2854
:1000700086113B28861553193F280611402806157E
:10008000D31844288610452886145318492806108A
:100090004A2806144C184E2806164F2806128616B3
:1000A0000B2086124C1C56280D20572803200800D0
:0E00B000831203134B088A004A0882000800DE
:1000BE00831203134C105208D30018204C1408005E
:1000CE007928803083120313CE008C28C030CE00E6
:1000DE008C289430CE008C28D430CE008C288030E2
:1000EE00CE008C28831203134E08013A0319682898
:1000FE004E08023A03196D284E08033A0319702868
:10010E004E08043A0319732876284F03F0004E0860
:10011E00F0077008CE007008D30018204C10D101E3
:10012E0051085007840000080319A52851085007EC
:10013E0084000008D2005F20D10A97284C140800D2
:10014E0083160313861206120610861006118611E8
:10015E0083128612061286110611861006100D20C5
:10016E000D200D208614061486160B2086120D20E7
:10017E0086160B2086120D2086160B2086120D2059
:10018E00061086160B2086120D2086160B20861260
:10019E008610861586160B2086120D2086110614E3
:1001AE0086160B208612061086160B2086120D2040
:1001BE0086160B208612061486160B2086120D202C
:1001CE00061086160B208612861506158614061442
:0C01DE0086160B2086120D204C14080021
:1001EA00033083120313FB008A30FC005530FD00F4
:1001FA00FD0BFD28FC0BFD28FB0BFD280000000071
:02020A000800EA
:10020C0058208A110A128000840ACA0A0319CB0AE0
:08021C00F003031D0629080090
:10022400A821A7200130D30018200C30D3001820B7
:100234000130CE000630CF004230D00067200230BB
:10024400CE000630CF003A30D00067200B30FB00E0
:100254002630FC005D30FD00FD0B2E29FC0B2E2901
:10026400FB0B2E29000000000130D30018200130C0
:10027400CE000130CF002930D00067200230CE00FC
:100284000530CF002030D00067200B30FB00263033
:10029400FC005D30FD00FD0B4D29FC0B4D29FB0BD3
:1002A4004D2900000000CD0104304D0203186029DF
:1002B4001C30D3001820F520CD0A5629CD01083072
:1002C4004D0203186B291830D3001820F520CD0AED
:1002D4006129CD0108304D02031876291C30D30062
:0C02E4001820F520CD0A6C29602977292C
:10035000203084002A3083120313F0007D30CA005D
:080360000130CB00062108006A
:1002FA0045346134733479345034493443343634B0
:02030A000034BD
:10030C006D3469346B3472346F3445346C34653409
:10031C006B34743472346F346E3469346B346134CE
:02032C0000349B
:10032E006534783461346D3470346C346534003433
:10033E004C34633464343434623469347434003489
:02400E006A2125
:00000001FF
