:020000001528C1
:0C00060083120E088A000D08820008001A
:1000120003208A110A128000840A8D0A03198E0AAB
:08002200C003031D09280800BA
:10002A001F30831685008601831205088C00003074
:10003A000C02031C3D280A300C0203183D280C0848
:10004A003F3EC00000300318013EC10040088D0049
:10005A0041088E0003208A110A1286000D30CC0056
:10006A00FB30CD00CD0B3728CC0B37280000000021
:04007A0019283E28DB
:10007E003F3406345B344F3466346D347D3407348C
:04008E007F34673420
:02400E00FA3F77
:00000001FF
