:020000003528A1
:10000800CF00030E830191000A0892008A0140087C
:100018008C00900A10080D06031D16288312013063
:10002800850690018312273081000B110C08C0004F
:0E00380012088A00110E8300CF0E4F0E090031
:0C00460083120F088A000E0882000800D8
:1000520023208A110A128000840A8E0A03198F0A49
:08006200C003031D292808005A
:10006A0083160510061486140615831205109001CE
:10007A0012308D00073083168100273083128100E9
:10008A00A0308B00061C51280D08013C03184E288D
:10009A008D03061C51284E28861C582812308D00C4
:1000AA00861C58285528061D5E288D0A061D5E28BE
:0600BA005B2847285F28C7
:02400E00F93F78
:00000001FF
